{
  "contractName": "MockV3Aggregator",
  "abi": [
    {
      "inputs": [
        {
          "internalType": "uint8",
          "name": "_decimals",
          "type": "uint8"
        },
        {
          "internalType": "int256",
          "name": "_initialAnswer",
          "type": "int256"
        }
      ],
      "stateMutability": "nonpayable",
      "type": "constructor"
    },
    {
      "inputs": [],
      "name": "decimals",
      "outputs": [
        {
          "internalType": "uint8",
          "name": "",
          "type": "uint8"
        }
      ],
      "stateMutability": "view",
      "type": "function"
    },
    {
      "inputs": [
        {
          "internalType": "uint256",
          "name": "",
          "type": "uint256"
        }
      ],
      "name": "getAnswer",
      "outputs": [
        {
          "internalType": "int256",
          "name": "",
          "type": "int256"
        }
      ],
      "stateMutability": "view",
      "type": "function"
    },
    {
      "inputs": [
        {
          "internalType": "uint256",
          "name": "",
          "type": "uint256"
        }
      ],
      "name": "getTimestamp",
      "outputs": [
        {
          "internalType": "uint256",
          "name": "",
          "type": "uint256"
        }
      ],
      "stateMutability": "view",
      "type": "function"
    },
    {
      "inputs": [],
      "name": "latestAnswer",
      "outputs": [
        {
          "internalType": "int256",
          "name": "",
          "type": "int256"
        }
      ],
      "stateMutability": "view",
      "type": "function"
    },
    {
      "inputs": [],
      "name": "latestRound",
      "outputs": [
        {
          "internalType": "uint256",
          "name": "",
          "type": "uint256"
        }
      ],
      "stateMutability": "view",
      "type": "function"
    },
    {
      "inputs": [],
      "name": "latestTimestamp",
      "outputs": [
        {
          "internalType": "uint256",
          "name": "",
          "type": "uint256"
        }
      ],
      "stateMutability": "view",
      "type": "function"
    },
    {
      "inputs": [],
      "name": "version",
      "outputs": [
        {
          "internalType": "uint256",
          "name": "",
          "type": "uint256"
        }
      ],
      "stateMutability": "view",
      "type": "function"
    },
    {
      "inputs": [
        {
          "internalType": "int256",
          "name": "_answer",
          "type": "int256"
        }
      ],
      "name": "updateAnswer",
      "outputs": [],
      "stateMutability": "nonpayable",
      "type": "function"
    },
    {
      "inputs": [
        {
          "internalType": "uint80",
          "name": "_roundId",
          "type": "uint80"
        },
        {
          "internalType": "int256",
          "name": "_answer",
          "type": "int256"
        },
        {
          "internalType": "uint256",
          "name": "_timestamp",
          "type": "uint256"
        },
        {
          "internalType": "uint256",
          "name": "_startedAt",
          "type": "uint256"
        }
      ],
      "name": "updateRoundData",
      "outputs": [],
      "stateMutability": "nonpayable",
      "type": "function"
    },
    {
      "inputs": [
        {
          "internalType": "uint80",
          "name": "_roundId",
          "type": "uint80"
        }
      ],
      "name": "getRoundData",
      "outputs": [
        {
          "internalType": "uint80",
          "name": "roundId",
          "type": "uint80"
        },
        {
          "internalType": "int256",
          "name": "answer",
          "type": "int256"
        },
        {
          "internalType": "uint256",
          "name": "startedAt",
          "type": "uint256"
        },
        {
          "internalType": "uint256",
          "name": "updatedAt",
          "type": "uint256"
        },
        {
          "internalType": "uint80",
          "name": "answeredInRound",
          "type": "uint80"
        }
      ],
      "stateMutability": "view",
      "type": "function"
    },
    {
      "inputs": [],
      "name": "latestRoundData",
      "outputs": [
        {
          "internalType": "uint80",
          "name": "roundId",
          "type": "uint80"
        },
        {
          "internalType": "int256",
          "name": "answer",
          "type": "int256"
        },
        {
          "internalType": "uint256",
          "name": "startedAt",
          "type": "uint256"
        },
        {
          "internalType": "uint256",
          "name": "updatedAt",
          "type": "uint256"
        },
        {
          "internalType": "uint80",
          "name": "answeredInRound",
          "type": "uint80"
        }
      ],
      "stateMutability": "view",
      "type": "function"
    }
  ],
  "bytecode": "0x608060405234801561001057600080fd5b5060405161068838038061068883398101604081905261002f916100a4565b6000805460ff191660ff84161790556100478161004e565b50506100fd565b60018190554260025560038054906000610067836100d6565b9091555050600380546000908152600460209081526040808320949094558254825260058152838220429081905592548252600690529190912055565b600080604083850312156100b6578182fd5b825160ff811681146100c6578283fd5b6020939093015192949293505050565b60006000198214156100f657634e487b7160e01b81526011600452602481fd5b5060010190565b61057c8061010c6000396000f3fe608060405234801561001057600080fd5b50600436106100a95760003560e01c80638205bf6a116100715780638205bf6a146101065780639a6fc8f51461010e578063a87a20ce14610132578063b5ab58dc14610145578063b633620c14610158578063feaf968c1461016b576100a9565b8063313ce567146100ae5780634aa2011f146100cc57806350d25bcd146100e157806354fd4d50146100f6578063668a0f02146100fe575b600080fd5b6100b6610173565b6040516100c39190610511565b60405180910390f35b6100df6100da3660046103ee565b61017c565b005b6100e96101c6565b6040516100c39190610426565b6100e96101cc565b6100e96101d1565b6100e96101d7565b61012161011c3660046103cd565b6101dd565b6040516100c39594939291906104e1565b6100df6101403660046103b5565b6102f2565b6100e96101533660046103b5565b610348565b6100e96101663660046103b5565b61035a565b61012161036c565b60005460ff1681565b6001600160501b0390931660038181556001849055600283905560009182526004602090815260408084209590955581548352600581528483209390935554815260069091522055565b60015481565b600081565b60035481565b60025481565b600080600080600080866001600160501b0316116102165760405162461bcd60e51b815260040161020d9061042f565b60405180910390fd5b6001600160501b0386166000908152600460205260408120541361024c5760405162461bcd60e51b815260040161020d9061048a565b6001600160501b0386166000908152600660205260409020546102815760405162461bcd60e51b815260040161020d9061045d565b6001600160501b0386166000908152600560205260409020546102b65760405162461bcd60e51b815260040161020d906104b4565b505050506001600160501b0382166000908152600460209081526040808320546006835281842054600590935292205493949193909250908490565b6001819055426002556003805490600061030b8361051f565b9091555050600380546000908152600460209081526040808320949094558254825260058152838220429081905592548252600690529190912055565b60046020526000908152604090205481565b60056020526000908152604090205481565b60035460008181526004602090815260408083205460068352818420546005909352922054839091929394565b80356001600160501b03811681146103b057600080fd5b919050565b6000602082840312156103c6578081fd5b5035919050565b6000602082840312156103de578081fd5b6103e782610399565b9392505050565b60008060008060808587031215610403578283fd5b61040c85610399565b966020860135965060408601359560600135945092505050565b90815260200190565b6020808252601490820152730726f756e6449642072657120746f206265203e360641b604082015260600190565b6020808252601390820152720cecae8a6e8c2e4e8cac882e840d8cadccee8d606b1b604082015260600190565b60208082526010908201526f0cecae882dce6eecae440d8cadccee8d60831b604082015260600190565b6020808252601390820152720cecae8a8d2dacae6e8c2dae040d8cadccee8d606b1b604082015260600190565b6001600160501b039586168152602081019490945260408401929092526060830152909116608082015260a00190565b60ff91909116815260200190565b600060001982141561053f57634e487b7160e01b81526011600452602481fd5b506001019056fea26469706673582212209bda9c2dd396afeed3b5531ef0f3bb75be2896688bdf5bcdb98d08457b2c2ce964736f6c63430008000033",
  "immutableReferences": {},
  "source": "// SPDX-License-Identifier: MIT\npragma solidity 0.8.0;\n\n/**\n * @title MockV3Aggregator\n * @notice Based on the FluxAggregator contract\n * @notice Use this contract when you need to test\n * other contract's ability to read data from an\n * aggregator contract, but how the aggregator got\n * its answer is unimportant\n */\ncontract MockV3Aggregator {\n  uint256 constant public  version = 0;\n\n  uint8 public  decimals;\n  int256 public  latestAnswer;\n  uint256 public  latestTimestamp;\n  uint256 public  latestRound;\n\n  mapping(uint256 => int256) public  getAnswer;\n  mapping(uint256 => uint256) public  getTimestamp;\n  mapping(uint256 => uint256) private getStartedAt;\n\n  constructor(\n    uint8 _decimals,\n    int256 _initialAnswer\n  ) {\n    decimals = _decimals;\n    updateAnswer(_initialAnswer);\n  }\n\n  function updateAnswer(\n    int256 _answer\n  ) public {\n    latestAnswer = _answer;\n    latestTimestamp = block.timestamp;\n    latestRound++;\n    getAnswer[latestRound] = _answer;\n    getTimestamp[latestRound] = block.timestamp;\n    getStartedAt[latestRound] = block.timestamp;\n  }\n\n  function updateRoundData(\n    uint80 _roundId,\n    int256 _answer,\n    uint256 _timestamp,\n    uint256 _startedAt\n  ) public {\n    latestRound = _roundId;\n    latestAnswer = _answer;\n    latestTimestamp = _timestamp;\n    getAnswer[latestRound] = _answer;\n    getTimestamp[latestRound] = _timestamp;\n    getStartedAt[latestRound] = _startedAt;\n  }\n\n  function getRoundData(uint80 _roundId)\n    external\n    view\n    returns (\n      uint80 roundId,\n      int256 answer,\n      uint256 startedAt,\n      uint256 updatedAt,\n      uint80 answeredInRound\n    )\n  {\n    require(_roundId>0, \"roundId req to be >0\");\n    require( getAnswer[_roundId]>0, \"getAnswer length\");\n    require( getStartedAt[_roundId]>0, \"getStartedAt length\");\n    require( getTimestamp[_roundId]>0, \"getTimestamp length\");\n    return (\n      _roundId,\n      getAnswer[_roundId],\n      getStartedAt[_roundId],\n      getTimestamp[_roundId],\n      _roundId\n    );\n  }\n\n  function latestRoundData()\n    external\n    view\n    returns (\n      uint80 roundId,\n      int256 answer,\n      uint256 startedAt,\n      uint256 updatedAt,\n      uint80 answeredInRound\n    )\n  {\n    return (\n      uint80(latestRound),\n      getAnswer[latestRound],\n      getStartedAt[latestRound],\n      getTimestamp[latestRound],\n      uint80(latestRound)\n    );\n  }\n}\n\ncontract PriceConsumerV3 {\n\n    MockV3Aggregator internal priceFeed;\n    /**\n     * Network: Kovan\n     * Aggregator: ETH/USD\n     * Address: 0x9326BFA02ADD2366b30bacB125260Af641031331\n     */\n    constructor(address _priceFeed) {\n        priceFeed = MockV3Aggregator(_priceFeed);\n    }\n\n    /**\n     * Returns the latest price\n     */\n    function getLatestPrice() public view returns (int) {\n        (\n            /* uint80 roundID */,\n            int price,\n            /* uint startedAt */,\n            /* uint timeStamp */,\n            /* uint80 answeredInRound */\n        ) = priceFeed.latestRoundData();\n        return price;\n    }\n\n    function latestRoundData() public view returns (\n            uint80 roundId,\n            int256 answer,\n            uint256 startedAt,\n            uint256 updatedAt,\n            uint80 answeredInRound\n        ) {\n        return priceFeed.latestRoundData();\n    }\n\n    function getRoundData(uint80 _roundId) public view returns (\n            uint80 roundId,\n            int256 answer,\n            uint256 startedAt,\n            uint256 updatedAt,\n            uint80 answeredInRound\n        ) {\n        return priceFeed.getRoundData(_roundId);\n    }\n}",
  "sourcePath": "/Users/cemadiloglu/Documents/blockchain/avax/hippoprediction/HippoPrediction/contracts/PriceConsumerV3.sol",
  "compiler": {
    "name": "solc",
    "version": "0.8.0+commit.c7dfd78e.Emscripten.clang"
  },
  "schemaVersion": "3.4.2",
  "updatedAt": "2021-11-13T21:03:18.318Z",
  "devdoc": {
    "kind": "dev",
    "methods": {},
    "title": "MockV3Aggregator",
    "version": 1
  },
  "userdoc": {
    "kind": "user",
    "methods": {},
    "notice": "Based on the FluxAggregator contractUse this contract when you need to test other contract's ability to read data from an aggregator contract, but how the aggregator got its answer is unimportant",
    "version": 1
  }
}