{
  "contractName": "Reference",
  "abi": [
    {
      "anonymous": false,
      "inputs": [
        {
          "indexed": true,
          "internalType": "address",
          "name": "user",
          "type": "address"
        }
      ],
      "name": "EnableReferenceSystem",
      "type": "event"
    },
    {
      "anonymous": false,
      "inputs": [
        {
          "indexed": true,
          "internalType": "address",
          "name": "user",
          "type": "address"
        },
        {
          "indexed": true,
          "internalType": "address",
          "name": "referrer",
          "type": "address"
        }
      ],
      "name": "SetReferrer",
      "type": "event"
    },
    {
      "inputs": [
        {
          "internalType": "address",
          "name": "",
          "type": "address"
        }
      ],
      "name": "userExistence",
      "outputs": [
        {
          "internalType": "bool",
          "name": "",
          "type": "bool"
        }
      ],
      "stateMutability": "view",
      "type": "function",
      "constant": true
    },
    {
      "inputs": [
        {
          "internalType": "address",
          "name": "",
          "type": "address"
        }
      ],
      "name": "userReferrer",
      "outputs": [
        {
          "internalType": "address",
          "name": "",
          "type": "address"
        }
      ],
      "stateMutability": "view",
      "type": "function",
      "constant": true
    },
    {
      "inputs": [],
      "name": "enableAddress",
      "outputs": [],
      "stateMutability": "nonpayable",
      "type": "function"
    },
    {
      "inputs": [
        {
          "internalType": "address",
          "name": "referrer",
          "type": "address"
        }
      ],
      "name": "setReferrer",
      "outputs": [],
      "stateMutability": "nonpayable",
      "type": "function"
    },
    {
      "inputs": [
        {
          "internalType": "address",
          "name": "user",
          "type": "address"
        }
      ],
      "name": "hasReferrer",
      "outputs": [
        {
          "internalType": "bool",
          "name": "",
          "type": "bool"
        }
      ],
      "stateMutability": "view",
      "type": "function",
      "constant": true
    },
    {
      "inputs": [
        {
          "internalType": "address",
          "name": "user",
          "type": "address"
        }
      ],
      "name": "getReferrer",
      "outputs": [
        {
          "internalType": "address",
          "name": "",
          "type": "address"
        }
      ],
      "stateMutability": "view",
      "type": "function",
      "constant": true
    }
  ],
  "bytecode": "0x608060405234801561001057600080fd5b5061044b806100206000396000f3fe608060405234801561001057600080fd5b50600436106100625760003560e01c806318452cd8146100675780634a9fefc7146100905780635b7a956c146100b05780635fef1d57146100ba5780637c3fcc38146100cd578063a18a7bfc146100e0575b600080fd5b61007a6100753660046102cd565b6100f3565b604051610087919061030f565b60405180910390f35b6100a361009e3660046102cd565b610113565b60405161008791906102fb565b6100b8610131565b005b61007a6100c83660046102cd565b6101af565b6100a36100db3660046102cd565b6101c4565b6100b86100ee3660046102cd565b6101df565b6001600160a01b0390811660009081526020819052604090205416151590565b6001600160a01b039081166000908152602081905260409020541690565b3360009081526001602052604090205460ff161561016a5760405162461bcd60e51b81526004016101619061035d565b60405180910390fd5b336000818152600160208190526040808320805460ff1916909217909155517f2fa4441d84cf6ea8d6820b57ae8b4d2d6a0df63cbcc0987bf1746846da9121709190a2565b60016020526000908152604090205460ff1681565b6000602081905290815260409020546001600160a01b031681565b336000908152602081905260409020546001600160a01b0316156102155760405162461bcd60e51b815260040161016190610394565b336001600160a01b038216141561023e5760405162461bcd60e51b81526004016101619061031a565b6001600160a01b03811660009081526001602052604090205460ff166102765760405162461bcd60e51b8152600401610161906103cb565b3360008181526020819052604080822080546001600160a01b0319166001600160a01b03861690811790915590519092917f137b763db83a4586a1401a3e4a3149ad4535dac8cf23c9f98def739e8a327b9891a350565b6000602082840312156102de578081fd5b81356001600160a01b03811681146102f4578182fd5b9392505050565b6001600160a01b0391909116815260200190565b901515815260200190565b60208082526023908201527f596f752063616e206e6f7420726566657220796f7572206f776e20616464726560408201526239b99760e91b606082015260800190565b6020808252601f908201527f54686973206164647265737320697320616c726561647920656e61626c656400604082015260600190565b6020808252601c908201527f596f7520616c7265616479206861766520612072656665727265722e00000000604082015260600190565b6020808252602a908201527f5468652072656665727265722061646472657373206973206e6f7420696e207460408201526934329039bcb9ba32b69760b11b60608201526080019056fea264697066735822122021eac8583d426d964e46849e538940f1c560d6b8aa6cb622c8ac584f52f788e264736f6c63430008000033",
  "immutableReferences": {},
  "source": "// SPDX-License-Identifier: MIT\npragma solidity 0.8.0;\n\nimport '@openzeppelin/contracts/utils/Context.sol';\nimport '@openzeppelin/contracts/access/Ownable.sol';\nimport '@openzeppelin/contracts/security/ReentrancyGuard.sol';\nimport '@openzeppelin/contracts/token/ERC20/IERC20.sol';\nimport '@openzeppelin/contracts/token/ERC20/utils/SafeERC20.sol';\n\nimport \"@chainlink/contracts/src/v0.8/VRFConsumerBase.sol\";\n\n\ninterface IRandomNumberConsumer {\n    function getRandom(uint256 lotteryId) external;\n}\n\ncontract RandomNumberConsumer is VRFConsumerBase, Ownable {\n    \n    bytes32 internal keyHash;\n    uint256 internal fee;\n\n    mapping (uint => uint) public randomNumber;\n    mapping (bytes32 => uint) public requestIds;\n    IRaffle public raffle;\n    uint256 public most_recent_random;\n\n    event SetRaffleAddress(address _raffleAddress);\n    event RandomFullfilled(bytes32 requestId, uint256 randomness);\n    \n    constructor(address _raffleAddress) \n        VRFConsumerBase(\n            0x8C7382F9D8f56b33781fE506E897a4F1e2d17255, // VRF Coordinator\n            0x326C977E6efc84E512bB9C30f76E30c160eD06FB  // LINK Token\n        )\n    {\n        keyHash = 0x6e75b569a01ef56d18cab6a8e71e6600d6ce853834d4a5748b720d06f878b3a4;\n        fee = 0.0001 * 10 ** 18;\n        raffle = IRaffle(_raffleAddress);\n    }\n\n    function setRaffleAddress(address _raffleAddress) external onlyOwner {\n        raffle = IRaffle(_raffleAddress);\n\n        emit SetRaffleAddress(_raffleAddress);\n    }\n    \n    function getRandom(uint256 lotteryId) external {\n        require(LINK.balanceOf(address(this)) > fee, \"Not enough LINK - fill contract with faucet\");\n        bytes32 _requestId = requestRandomness(keyHash, fee);\n        requestIds[_requestId] = lotteryId;\n    }\n\n    function fulfillRandomness(bytes32 requestId, uint256 randomness) internal override {\n        require(msg.sender == address(0x8C7382F9D8f56b33781fE506E897a4F1e2d17255), \"Fulillment only permitted by Coordinator\");\n        most_recent_random = randomness;\n        uint lotteryId = requestIds[requestId];\n        randomNumber[lotteryId] = randomness;\n        raffle.fulfill_random(randomness);\n\n        emit RandomFullfilled(requestId, randomness);\n    }\n\n    //withdraw function to avoid locking your token in the contract\n    function recoverToken(address _token, uint256 _amount, address receiver) external onlyOwner {\n        IERC20(_token).transfer(receiver, _amount);\n    }\n}\n\ninterface IRaffle {\n    function fulfill_random(uint) external;\n    function addUserTicket(address _userAddress, uint256 ticketAmount) external;\n    function addBalance() external payable;\n}\n\ncontract Raffle is Ownable, ReentrancyGuard, IRaffle {\n\n    IRandomNumberConsumer public randomOracle;\n\n    uint256 public minRoundDuration; // min interval in seconds between two raffle rounds\n    uint256 public currentRound; // current round for raffle round\n    uint256 public ticketMultiplier; //this is the global ticket multiplier that will effect all tickets received from other contracts\n\n    uint256 public rewardTicketAmountForRaffleComplete = 10;\n\n    struct Round {\n        address[] entrants; //array of all entrants, winner will be picked by random index\n        uint256 amount;  //total balance of round to send to the winner\n        uint256 ticketCount; //total ticket count of all participated users\n        uint256 startTimestamp; \n        uint256 endTimestamp; //0 if not complete yet\n        uint256 winnerIndex; //random index of entrants[] to get winner\n        address winner; //address of winner to let them claim. this is 0 if no winner yet\n        bool claimed; //default false\n    }\n\n    mapping(uint256 =>  mapping(address => uint256)) public ledger; //keeps user ticket count per round\n    mapping(address => uint256[]) public userRounds; //keeps round numbers user participated in\n    mapping(uint256 => Round) public rounds; //keeps all rounds data\n    mapping(address => bool) public addressesAllowedToAddTicket; //keeps other contract addresses that can interact with this contract\n\n    event AddTicket(address indexed user, uint256 ticketAmount, uint256 indexed round);\n    event AddBalance(uint256 amount, uint256 indexed round);\n    event RoundComplete(address indexed user, uint256 indexed round, uint256 randomness);\n    event ClaimRaffle(address indexed user, uint256 amount, uint256 indexed round);\n    event SetVRFAddress(address _vrfAddress, uint256 indexed round);\n    event AddAllowedAddress(address _allowedAddress, uint256 indexed round);\n    event RemoveAllowedAddress(address _allowedAddress, uint256 indexed round);\n    event SetTicketMultiplier(uint256 _ticketMultiplier, uint256 indexed round);\n    event SetMinRoundDuration(uint256 _minRoundDuration, uint256 indexed round);\n\n    modifier onlyAllowedContract() {\n        require(addressesAllowedToAddTicket[msg.sender], \"You dont have the permission to add ticket\");\n        _;\n    }\n\n    constructor(uint256 _minRoundDuration) {\n        minRoundDuration = _minRoundDuration;\n        ticketMultiplier = 1; \n        _startRound();\n    }\n\n    function setVRFAddress(address _vrfAddress) external onlyOwner {\n        randomOracle = IRandomNumberConsumer(_vrfAddress);\n\n        emit SetVRFAddress(_vrfAddress, currentRound);\n    }\n\n    function setRewardTicketAmountForRaffleComplete(uint256 _rewardTicketAmountForRaffleComplete) external onlyOwner {\n        rewardTicketAmountForRaffleComplete = _rewardTicketAmountForRaffleComplete;\n    }\n\n    function pickWinner() external {\n        require(block.timestamp >= rounds[currentRound-1].endTimestamp + minRoundDuration, \"raffle cant be completed yet.\");\n\n        randomOracle.getRandom(currentRound);\n        \n        //start new round, so new tickets enter correctly before random is fulfilled\n        _startRound();\n\n        //give caller reward tickets\n        _addUserTicket(msg.sender, rewardTicketAmountForRaffleComplete);\n    }\n\n    function _startRound() internal {\n        currentRound = currentRound + 1;\n        rounds[currentRound].startTimestamp = block.timestamp;\n    }\n\n    function fulfill_random(uint256 randomness) external override {\n        require(randomness > 0, \"random-not-found\");\n        require(msg.sender == address(randomOracle), \"only the oracle can fulfill\");\n\n        //we get the previous round because a new round was started on pickWinner\n        Round storage round = rounds[currentRound-1];\n        round.endTimestamp = block.timestamp;\n\n        uint256 _winnerIndex = randomness % round.entrants.length;\n        round.winnerIndex = _winnerIndex;\n        round.winner = round.entrants[_winnerIndex];\n\n        emit RoundComplete(round.winner, currentRound-1, randomness);\n    }\n\n    function claimWinning(uint256 roundNo) external nonReentrant {\n        Round storage round = rounds[roundNo];\n        require(round.winner == msg.sender, \"only the winner of this round can claim\");\n        require(!round.claimed, \"this round was already claimed\");\n\n        round.claimed = true;\n        _safeTransfer(address(msg.sender), round.amount);\n\n        emit ClaimRaffle(msg.sender, round.amount, roundNo);\n    }\n\n    function _safeTransfer(address to, uint256 value) internal {\n        (bool success, ) = to.call{value: value}(\"\");\n        require(success, \"TransferHelper: TRANSFER_FAILED\");\n    }\n\n    function _addUserTicket(address _userAddress, uint256 ticketAmount) internal {\n        //dont implement actions if ticketAmount is 0\n        //dont revert as it might prevent betting or other actions on other contracts\n        if(ticketAmount > 0){\n            Round storage round = rounds[currentRound];\n            uint256 ticketsToAdd = ticketAmount  * ticketMultiplier;\n            round.ticketCount += ticketsToAdd;\n            ledger[currentRound][_userAddress] += ticketsToAdd;\n            userRounds[_userAddress].push(currentRound);\n\n            for(uint256 i = 0; i < ticketsToAdd; i++){\n                round.entrants.push(_userAddress);\n            }\n\n            emit AddTicket(_userAddress, ticketAmount, currentRound);\n        }\n    }\n\n    function addUserTicket(address _userAddress, uint256 ticketAmount) external override onlyAllowedContract {\n        _addUserTicket(_userAddress, ticketAmount);\n    }\n\n    function addBalance() external payable override onlyAllowedContract {\n        rounds[currentRound].amount += msg.value;\n\n        emit AddBalance(msg.value, currentRound);\n    }\n\n    function addAllowedAddress(address _allowedAddress) external onlyOwner {\n        require(_allowedAddress != address(0), 'cant add address 0');\n        addressesAllowedToAddTicket[_allowedAddress] = true;\n\n        emit AddAllowedAddress(_allowedAddress, currentRound);\n    }\n\n    function removeAllowedAddress(address _allowedAddress) external onlyOwner {\n        require(_allowedAddress != address(0), 'cant remove address 0');\n        addressesAllowedToAddTicket[_allowedAddress] = false;\n\n        emit RemoveAllowedAddress(_allowedAddress, currentRound);\n    }\n\n    function setMinRoundDuration(uint256 _minRoundDuration) external onlyOwner {\n        minRoundDuration = _minRoundDuration;\n\n        emit SetMinRoundDuration(_minRoundDuration, currentRound);\n    }\n\n    function setTicketMultiplier(uint256 _ticketMultiplier) external onlyOwner {\n        ticketMultiplier = _ticketMultiplier;\n\n        emit SetTicketMultiplier(_ticketMultiplier, currentRound);\n    }\n}\n\n//chainlink oracle interface\ninterface AggregatorV3Interface {\n    function decimals() external view returns (uint8);\n    function description() external view returns (string memory);\n    function version() external view returns (uint256);\n    function getRoundData(uint80 _roundId) external view returns (\n        uint80 roundId, int256 answer, uint256 startedAt, uint256 updatedAt, uint80 answeredInRound);\n    function latestRoundData() external view returns (\n        uint80 roundId, int256 answer, uint256 startedAt, uint256 updatedAt,uint80 answeredInRound);\n}\n\ninterface IReference {\n    function hasReferrer(address user) external view returns (bool);\n    function setReferrer(address referrer) external;\n    function getReferrer(address user) external view returns (address);\n}\n\ncontract Reference is IReference {\n    mapping(address => address) public userReferrer; \n    mapping(address => bool) public userExistence;\n\n    event EnableReferenceSystem(address indexed user);\n    event SetReferrer(address indexed user, address indexed referrer);\n\n    function enableAddress() external {\n        require(!userExistence[msg.sender], \"This address is already enabled\");\n        userExistence[msg.sender] = true;\n\n        emit EnableReferenceSystem(msg.sender);\n    }\n\n    function setReferrer(address referrer) override external {\n        require(userReferrer[msg.sender] == address(0), \"You already have a referrer.\");\n        require(msg.sender != referrer, \"You can not refer your own address.\");\n        require(userExistence[referrer], \"The referrer address is not in the system.\");\n        userReferrer[msg.sender] = referrer;\n\n        emit SetReferrer(msg.sender, referrer);\n    }\n\n    function hasReferrer(address user) override external view virtual returns (bool) {\n        return userReferrer[user] != address(0);\n    }\n\n    function getReferrer(address user) override external view returns (address) {\n        return userReferrer[user];\n    }\n}\n\ncontract HippoPrediction is Ownable, ReentrancyGuard {\n    using SafeERC20 for IERC20;\n\n    //raffle variables\n    IRaffle public raffle;\n    uint256 public raffleTicketNormalizer = 10000000000000000;\n    uint256 public raffleLogMultiplier = 15; //times 10\n    uint256 public rewardTicketAmountForExecuteRound = 10;\n    uint256 public rewardTicketAmountForCompleteVoting = 10;\n    //------\n\n    address public adminAddress; // address of the admin\n\n    uint32 public intervalSeconds; // interval in seconds between two prediction rounds\n\n    uint256 public minBetAmount; // minimum betting amount (denominated in wei)\n    uint256 public treasuryFee; // treasury rate x10\n    uint256 public treasuryAmount; // treasury amount that was not claimed\n\n    uint256 public raffleRate; // percent of treasury fee that will be sent to the raffle contract\n\n    uint256 public currentEpoch; // current epoch for prediction round\n\n    uint256 public constant MAX_TREASURY_FEE = 100; // 10%\n\n    mapping(uint256 => mapping(address => BetInfo)) public ledger;\n    mapping(uint256 => Round) public rounds;\n    mapping(uint256 => Timestamps) public timestamps;\n    mapping(address => uint256[]) public userRounds;\n\n    //reference variables\n    IReference public referenceSystem;\n    uint256 public referrerBonus;\n    uint256 public refereeBonus;\n    mapping(address => uint256) public referrerBonuses; //keep referrer bonuses in a mapping, so they can claim total amount themselves\n    //----------------\n\n    //voting variables\n    mapping(address => bool) public oracleExistence;\n    address public selectedOracle;\n    address public maxVotedOracle;\n    uint256 public latestOracleUpdateTimestamp;\n    uint256 public oracleVotingPeriod = 604800; //1 week in seconds\n    uint256 public maxOracleVote;\n    uint256 public currentOracleVoteRound;\n    mapping(uint256 => mapping(address => bool)) public userVoteRounds; //[roundNo][userAddress]\n    mapping(uint256 => mapping(address => uint256)) public oracleVotes; //[roundNo][oracleAddress]\n    //----------------\n\n    enum Position {\n        Bull,\n        Bear,\n        Noresult\n    }\n\n    struct Round {\n        int256 lockPrice;\n        int256 closePrice;\n        uint256 totalAmount;\n        uint256 bullAmount;\n        uint256 bearAmount;\n        uint256 rewardBaseCalAmount;\n        uint256 rewardAmount;\n        uint256 bullBonusAmount;\n        uint256 bearBonusAmount;\n        uint80 lockOracleId;\n        uint80 closeOracleId;\n        address oracleAddress;\n        bool oracleCalled;\n        bool cancelled;\n    }\n\n    struct Timestamps {\n        uint32 startTimestamp;\n        uint32 lockTimestamp;\n        uint32 closeTimestamp;\n    }\n\n    struct BetInfo {\n        Position position;\n        uint256 amount;\n        uint256 refereeAmount;\n        uint256 referrerAmount;\n        bool claimed; // default false\n    }\n\n    event SetReferenceAddress(address referenceSystem, uint256 indexed epoch);\n    event SetReferenceBonuses(uint256 referrerBonus, uint256 refereeBonus, uint256 indexed epoch);\n    event ClaimReferrerBonus(address indexed sender, uint256 reward, uint256 indexed epoch);\n\n    event AddOracle(address oracleAddress, uint256 indexed epoch);\n    event RemoveOracle(address removedOracle, uint256 indexed epoch);\n    event SetOraclesList(uint256 indexed epoch);\n    event EmergencySetNewOracle(address oracle, uint256 indexed epoch);\n    event CompleteOracleVoting(address oracle, uint256 maxOracleVote, uint256 indexed epoch);\n    event OracleVote(address indexed sender, address oracle, uint256 indexed epoch);\n\n    event NewBet(address indexed sender, uint256 indexed epoch, uint256 amount, uint8 position);\n    event Claim(address indexed sender, uint256 indexed epoch, uint256 amount);\n    event EndRound(uint256 indexed epoch, uint256 indexed roundId, int256 price);\n    event LockRound(uint256 indexed epoch, uint256 indexed roundId, int256 price);\n\n    event NewAdminAddress(address admin);\n    event NewIntervalSeconds(uint32 intervalSeconds);\n    event NewMinBetAmount(uint256 indexed epoch, uint256 minBetAmount);\n    event NewTreasuryFee(uint256 indexed epoch, uint256 treasuryFee);\n    event NewOracle(address oracle);\n    event SetOracleVotingPeriod(uint256 votingPeriod, uint256 indexed epoch);\n\n    event RewardsCalculated(uint256 indexed epoch, uint8 roundResultPosition, uint256 rewardBaseCalAmount, uint256 rewardAmount, uint256 treasuryAmount);\n\n    event StartRound(uint256 indexed epoch);\n    event CancelRound(uint256 indexed epoch);\n    event TokenRecovery(address indexed token, uint256 amount);\n    event TreasuryClaim(uint256 amount);\n\n    event ReferrerBonus(address indexed user, address indexed referrer, uint256 amount, uint256 indexed currentEpoch);\n\n    modifier onlyAdmin() {\n        require(msg.sender == adminAddress, \"Not admin\");\n        _;\n    }\n\n    modifier notContract() {\n        require(!_isContract(msg.sender), \"Contract not allowed\");\n        require(msg.sender == tx.origin, \"Proxy contract not allowed\");\n        _;\n    }\n\n    constructor(\n        address[] memory _oraclesList,\n        uint32 _intervalSeconds,\n        uint256 _minBetAmount,\n        uint256 _treasuryFee,\n        uint256 _raffleRate,\n        uint256 _referrerBonus,\n        uint256 _refereeBonus,\n        address _referenceSystem\n    ) {\n        require(_treasuryFee <= MAX_TREASURY_FEE, \"Treasury fee too high\");\n        require(_raffleRate + _referrerBonus + _refereeBonus <= 100, \"cant be higher than 100%\");\n        require(_oraclesList.length > 0, \"Oracles List is empty\");\n\n        selectedOracle = _oraclesList[0];\n        for (uint256 i = 0; i < _oraclesList.length; i++) { \n            oracleExistence[_oraclesList[i]] = true;       \n        }\n\n        adminAddress = msg.sender;\n        intervalSeconds = _intervalSeconds;\n        minBetAmount = _minBetAmount;\n        treasuryFee = _treasuryFee;\n        raffleRate = _raffleRate;\n\n        rounds[0].cancelled = true;\n        currentEpoch = 1;\n        _startRound(currentEpoch);\n\n        referenceSystem = IReference(_referenceSystem);\n        referrerBonus = _referrerBonus;\n        refereeBonus = _refereeBonus;\n    }\n\n    //------------------------\n    //REFERENCE SYSTEM FUNCTIONS\n    function setReferenceAddress(address _referenceSystem) external onlyAdmin {\n        referenceSystem = IReference(_referenceSystem);\n\n        emit SetReferenceAddress(_referenceSystem, currentEpoch);\n    }\n\n    function setReferenceBonuses(uint256 _referrerBonus, uint256 _refereeBonus) external onlyAdmin {\n        require(raffleRate + _referrerBonus + _refereeBonus <= 100, \"cant be higher than 100%\");\n        referrerBonus = _referrerBonus;\n        refereeBonus = _refereeBonus;\n\n        emit SetReferenceBonuses(referrerBonus, refereeBonus, currentEpoch);\n    }\n\n    function claimReferrerBonus() external nonReentrant onlyOwner {\n        require(referrerBonuses[msg.sender] > 0, \"user has no referrer bonuses\");\n        uint reward = referrerBonuses[msg.sender];\n        referrerBonuses[msg.sender] = 0;\n        _safeTransfer(address(msg.sender), reward);\n\n        emit ClaimReferrerBonus(msg.sender, reward, currentEpoch);\n    }\n    //------------------------\n\n    //------------------------\n    //ORACLE VOTING FUNCTIONS\n\n    function addOracle(address[] memory _oraclesList) external onlyAdmin {\n        for (uint256 i = 0; i < _oraclesList.length; i++) { \n            oracleExistence[_oraclesList[i]] = true;       \n            // Dummy check to make sure the interface implements this function properly\n            AggregatorV3Interface(_oraclesList[i]).latestRoundData();\n\n            emit AddOracle(_oraclesList[i], currentOracleVoteRound);\n        }\n    }\n\n    function removeOracle(address[] memory _oraclesList) external onlyAdmin {\n        for (uint256 i = 0; i < _oraclesList.length; i++) { \n            oracleExistence[_oraclesList[i]] = false;       \n\n            emit RemoveOracle(_oraclesList[i], currentOracleVoteRound);\n        }\n    }\n\n    function setOracleVotingPeriod(uint256 _votingPeriod) external onlyAdmin {\n        oracleVotingPeriod = _votingPeriod;\n\n        emit SetOracleVotingPeriod(_votingPeriod, currentOracleVoteRound);\n    }\n\n    //once the voting period is over, anyonce can call this function and complete the voting\n    //this will set the next round to start with the new oracle\n    //live round that was locked with old oracle will still get its ending price from the previous oracle\n    function completeOracleVoting() external {\n        require(block.timestamp >= latestOracleUpdateTimestamp + oracleVotingPeriod, \"Voting is not over yet\");\n\n        selectedOracle = maxVotedOracle;\n        latestOracleUpdateTimestamp = block.timestamp;\n        maxOracleVote = 0;\n        currentOracleVoteRound = currentOracleVoteRound + 1;\n\n        //give reward to the caller\n        raffle.addUserTicket(msg.sender, rewardTicketAmountForCompleteVoting);\n\n        emit CompleteOracleVoting(selectedOracle, maxOracleVote, currentOracleVoteRound);\n    }\n\n    //community can vote for the new oracle. every user can vote once\n    function voteForNewOracle(address _oracleAddress) external {\n        require(!userVoteRounds[currentOracleVoteRound][msg.sender], \"you have already voted\");\n        require(oracleExistence[_oracleAddress], \"oracle is not available\");\n        \n        userVoteRounds[currentOracleVoteRound][msg.sender] = true;\n        oracleVotes[currentOracleVoteRound][_oracleAddress]++;\n        if(oracleVotes[currentOracleVoteRound][_oracleAddress] > maxOracleVote){\n             maxOracleVote = oracleVotes[currentOracleVoteRound][_oracleAddress];\n             maxVotedOracle = _oracleAddress;\n        }\n\n        emit OracleVote(msg.sender, _oracleAddress, currentOracleVoteRound);\n    }\n    //------------------------\n    //------------------------\n\n    function setRaffleAddress(address _raffleAddress) external onlyAdmin {\n        raffle = IRaffle(_raffleAddress);\n    }\n\n    function setRaffleRate(uint256 _raffleRate) external onlyAdmin {\n        require(_raffleRate + referrerBonus + refereeBonus <= 100, \"cant be higher than 100%\");\n        raffleRate = _raffleRate;\n    }\n\n    function setRaffleTicketNormalizer(uint256 _raffleTicketNormalizer) external onlyAdmin {\n        raffleTicketNormalizer = _raffleTicketNormalizer;\n    }\n\n    function setRaffleLogMultiplier(uint256 _raffleLogMultiplier) external onlyAdmin {\n        raffleLogMultiplier = _raffleLogMultiplier;\n    }\n\n    function setRewardTicketAmountForExecuteRound(uint256 _rewardTicketAmountForExecuteRound) external onlyAdmin {\n        rewardTicketAmountForExecuteRound = _rewardTicketAmountForExecuteRound;\n    }\n\n    function setRewardTicketAmountForCompleteVoting(uint256 _rewardTicketAmountForCompleteVoting) external onlyAdmin {\n        rewardTicketAmountForCompleteVoting = _rewardTicketAmountForCompleteVoting;\n    }\n\n    function _addUserTicket(address _userAddress, uint256 _amount) internal {\n        //add user tickets to the raffle system\n        //log2 function is used to have a higher bonus for simply betting on a round\n        //to incentive betting on multiple rounds instead of a single round\n        uint256 ticketAmount = (raffleLogMultiplier * log2x(_amount / raffleTicketNormalizer) / 10) + 1;\n        raffle.addUserTicket(_userAddress, ticketAmount);\n    }\n\n    function log2x(uint x) public pure returns (uint y){\n        assembly {\n                let arg := x\n                x := sub(x,1)\n                x := or(x, div(x, 0x02))\n                x := or(x, div(x, 0x04))\n                x := or(x, div(x, 0x10))\n                x := or(x, div(x, 0x100))\n                x := or(x, div(x, 0x10000))\n                x := or(x, div(x, 0x100000000))\n                x := or(x, div(x, 0x10000000000000000))\n                x := or(x, div(x, 0x100000000000000000000000000000000))\n                x := add(x, 1)\n                let m := mload(0x40)\n                mstore(m,           0xf8f9cbfae6cc78fbefe7cdc3a1793dfcf4f0e8bbd8cec470b6a28a7a5a3e1efd)\n                mstore(add(m,0x20), 0xf5ecf1b3e9debc68e1d9cfabc5997135bfb7a7a3938b7b606b5b4b3f2f1f0ffe)\n                mstore(add(m,0x40), 0xf6e4ed9ff2d6b458eadcdf97bd91692de2d4da8fd2d0ac50c6ae9a8272523616)\n                mstore(add(m,0x60), 0xc8c0b887b0a8a4489c948c7f847c6125746c645c544c444038302820181008ff)\n                mstore(add(m,0x80), 0xf7cae577eec2a03cf3bad76fb589591debb2dd67e0aa9834bea6925f6a4a2e0e)\n                mstore(add(m,0xa0), 0xe39ed557db96902cd38ed14fad815115c786af479b7e83247363534337271707)\n                mstore(add(m,0xc0), 0xc976c13bb96e881cb166a933a55e490d9d56952b8d4e801485467d2362422606)\n                mstore(add(m,0xe0), 0x753a6d1b65325d0c552a4d1345224105391a310b29122104190a110309020100)\n                mstore(0x40, add(m, 0x100))\n                let magic := 0x818283848586878898a8b8c8d8e8f929395969799a9b9d9e9faaeb6bedeeff\n                let shift := 0x100000000000000000000000000000000000000000000000000000000000000\n                let a := div(mul(x, magic), shift)\n                y := div(mload(add(m,sub(255,a))), shift)\n                y := add(y, mul(256, gt(arg, 0x8000000000000000000000000000000000000000000000000000000000000000)))\n            }  \n        }\n\n    /**\n     * @notice Bet bear position\n     * @param epoch: epoch\n     */\n    function betBear(uint256 epoch) external payable nonReentrant notContract {\n        require(epoch == currentEpoch, \"Bet is too early/late\");\n        require(_bettable(epoch), \"Round not bettable\");\n        require(msg.value >= minBetAmount, \"Bet amount must be greater than minBetAmount\");\n        require(ledger[epoch][msg.sender].amount == 0, \"Can only bet once per round\");\n\n        // Update round data\n        uint256 amount = msg.value;\n        Round storage round = rounds[epoch];\n        round.totalAmount = round.totalAmount + amount;\n        round.bearAmount = round.bearAmount + amount;\n\n        //-------------------\n        //Reference BonusPart\n        //if the user has a referrer, set the referral bonuses and subtract it from the treasury amount\n        uint refereeAmt = 0;\n        uint referrerAmt = 0;\n\n        //check and set referral bonuses\n        if(referenceSystem.hasReferrer(msg.sender))\n        {\n            uint treasuryAmt = amount * treasuryFee / 1000;\n            refereeAmt = treasuryAmt * refereeBonus / 100;\n            referrerAmt = treasuryAmt * referrerBonus / 100;\n            round.bearBonusAmount = round.bearBonusAmount + refereeAmt + referrerAmt;\n        }\n        //-------------------\n\n        // Update user data\n        BetInfo storage betInfo = ledger[epoch][msg.sender];\n        betInfo.position = Position.Bear;\n        betInfo.amount = amount;\n        betInfo.refereeAmount = refereeAmt;\n        betInfo.referrerAmount = referrerAmt;\n        userRounds[msg.sender].push(epoch);\n\n        //add user tickets to the raffle system\n        _addUserTicket(msg.sender, amount);\n\n        emit NewBet(msg.sender, epoch, amount, uint8(Position.Bear));\n    }\n\n    /**\n     * @notice Bet bull position\n     * @param epoch: epoch\n     */\n    function betBull(uint256 epoch) external payable nonReentrant notContract {\n        require(epoch == currentEpoch, \"Bet is too early/late\");\n        require(_bettable(epoch), \"Round not bettable\");\n        require(msg.value >= minBetAmount, \"Bet amount must be greater than minBetAmount\");\n        require(ledger[epoch][msg.sender].amount == 0, \"Can only bet once per round\");\n\n        // Update round data\n        uint256 amount = msg.value;\n        Round storage round = rounds[epoch];\n        round.totalAmount = round.totalAmount + amount;\n        round.bullAmount = round.bullAmount + amount;\n\n        //-------------------\n        //Reference BonusPart\n        //if the user has a referrer, set the referral bonuses and subtract it from the treasury amount\n        uint refereeAmt = 0;\n        uint referrerAmt = 0;\n        uint treasuryAmt = amount * treasuryFee / 100;\n\n        //check and set referral bonuses\n        if(referenceSystem.hasReferrer(msg.sender))\n        {\n            refereeAmt = treasuryAmt * refereeBonus / 100;\n            referrerAmt = treasuryAmt * referrerBonus / 100;\n            round.bullBonusAmount = round.bullBonusAmount + refereeAmt + referrerAmt;\n        }\n        //-------------------\n\n        // Update user data\n        BetInfo storage betInfo = ledger[epoch][msg.sender];\n        betInfo.position = Position.Bull;\n        betInfo.amount = amount;\n        betInfo.refereeAmount = refereeAmt;\n        betInfo.referrerAmount = referrerAmt;\n        userRounds[msg.sender].push(epoch);\n\n        //add user tickets to the raffle system\n        _addUserTicket(msg.sender, amount);\n\n        emit NewBet(msg.sender, epoch, amount, uint8(Position.Bull));\n    }\n\n    /**\n     * @notice Claim reward for an array of epochs\n     * @param epochs: array of epochs\n     */\n    function claim(uint256[] calldata epochs) external nonReentrant notContract {\n        uint256 reward; // Initializes reward\n\n        for (uint256 i = 0; i < epochs.length; i++) {\n            require(timestamps[epochs[i]].startTimestamp != 0, \"Round has not started\");\n            require(block.timestamp > timestamps[epochs[i]].closeTimestamp, \"Round has not ended\");\n\n            uint256 addedReward = 0;\n            BetInfo storage betInfo = ledger[epochs[i]][msg.sender];\n            Round memory round = rounds[epochs[i]];\n\n            // Round valid, claim rewards\n            if (round.oracleCalled && !round.cancelled) {\n                require(claimable(epochs[i], msg.sender), \"Not eligible for claim\");\n                \n                //add referee bonus to the addedRewards on claim\n                addedReward = (betInfo.amount * round.rewardAmount) / round.rewardBaseCalAmount + betInfo.refereeAmount;\n                \n                //if there is a referrer bonus, add it to that user's referrer bonus amount so they can claim it themselves\n                if(betInfo.referrerAmount > 0)\n                {\n                    address referrerUser = referenceSystem.getReferrer(msg.sender);\n                    referrerBonuses[referrerUser] = referrerBonuses[referrerUser] + betInfo.referrerAmount;\n\n                    emit ReferrerBonus(msg.sender, referrerUser, betInfo.referrerAmount, epochs[i]);\n                }\n            }\n            // Round invalid, refund bet amount\n            else {\n                require(refundable(epochs[i], msg.sender), \"Not eligible for refund\");\n                addedReward = betInfo.amount;\n            }\n\n            betInfo.claimed = true;\n            reward += addedReward;\n\n            emit Claim(msg.sender, epochs[i], addedReward);\n        }\n\n        if (reward > 0) {\n            _safeTransfer(address(msg.sender), reward);\n        }\n    }\n\n    function executeRound() external {\n        require(block.timestamp >= timestamps[currentEpoch].lockTimestamp, 'early');\n\n        uint80 roundId;\n        int256 price;\n        uint256 updatedAt;\n\n        (roundId, price, , updatedAt, ) = AggregatorV3Interface(rounds[currentEpoch].oracleAddress).latestRoundData();\n        _lockCurrentRound(roundId, price, updatedAt);\n\n        //end and calculate the live round only if it was not cancelled on locking\n        Round storage liveRound = rounds[currentEpoch-1];\n        if(!liveRound.cancelled && !liveRound.oracleCalled){\n            (roundId, price, updatedAt) = _getOracleDataForPreviousRound(currentEpoch-1);\n            _endRound(currentEpoch-1, roundId, price, updatedAt);\n            _calculateRewards(currentEpoch-1);\n        }\n\n        currentEpoch = currentEpoch + 1;\n        _startRound(currentEpoch);\n\n        //give reward to the caller\n        raffle.addUserTicket(msg.sender, rewardTicketAmountForExecuteRound);\n    }\n\n    function _lockCurrentRound(uint80 oracleRoundId, int256 price, uint256 oracleUpdatedAt) internal {\n        Round storage round = rounds[currentEpoch];\n        Timestamps storage ts = timestamps[currentEpoch];\n\n        //using intervalSeconds as locking buffer period\n        //cant lock the round if intervalSeconds passed after the lockTimestamp\n        //cant lock if oracle didnt update after startTimestamp\n        //also cant lock if round timestamps are not set correctly (equals 0)\n        if(ts.startTimestamp == 0 ||\n            block.timestamp > ts.lockTimestamp + intervalSeconds ||\n            oracleUpdatedAt < ts.startTimestamp){\n            round.cancelled = true;\n            emit CancelRound(currentEpoch);\n        }\n        else {\n            round.lockPrice = price;\n            round.lockOracleId = oracleRoundId;\n            ts.lockTimestamp = uint32(block.timestamp);\n            ts.closeTimestamp = uint32(block.timestamp) + intervalSeconds;\n            emit LockRound(currentEpoch, oracleRoundId, round.lockPrice);\n        }\n    }\n\n    function _startRound(uint256 epoch) internal {\n        Timestamps storage ts = timestamps[epoch];\n        ts.startTimestamp = uint32(block.timestamp);\n        ts.lockTimestamp = uint32(block.timestamp) + intervalSeconds;\n        ts.closeTimestamp = uint32(block.timestamp) + (intervalSeconds * 2);\n\n        rounds[epoch].oracleAddress = selectedOracle;\n\n        emit StartRound(epoch);\n    }\n\n    function _getOracleDataForPreviousRound(uint256 epoch) internal view returns (uint80, int256, uint256){\n        uint80 roundId;\n        int256 price;\n        uint256 updatedAt;\n\n        AggregatorV3Interface oracle = AggregatorV3Interface(rounds[epoch].oracleAddress);\n\n        roundId = rounds[epoch].lockOracleId;\n\n        if(roundId > 0){\n            (roundId, price, , updatedAt, ) = oracle.getRoundData(roundId + 1);\n\n            while (updatedAt < timestamps[epoch].closeTimestamp) {\n                (roundId, price, , updatedAt, ) = oracle.getRoundData(roundId+1);\n            }\n            (roundId, price, , updatedAt, ) = oracle.getRoundData(roundId-1);\n        }\n        else {\n            (roundId, price, , updatedAt, ) = oracle.latestRoundData();\n\n            while (updatedAt > timestamps[epoch].closeTimestamp) {\n                (roundId, price, , updatedAt, ) = oracle.getRoundData(roundId-1);\n            }\n        }\n\n        return (roundId, price, updatedAt);\n    }\n\n    function _endRound(uint256 epoch, uint80 oracleRoundId, int256 oraclePrice, uint256 oracleUpdatedAt) internal {\n        Round storage round = rounds[epoch];\n        Timestamps storage ts = timestamps[epoch];\n\n        if(ts.startTimestamp == 0 ||\n            oracleUpdatedAt > ts.closeTimestamp ||\n            oracleUpdatedAt < ts.lockTimestamp){\n            round.closeOracleId = oracleRoundId;\n            round.cancelled = true;\n\n            emit CancelRound(epoch);\n        }\n        else{\n            round.closeOracleId = oracleRoundId;\n            round.closePrice = oraclePrice;\n            round.oracleCalled = true;\n\n            emit EndRound(epoch, oracleRoundId, round.closePrice);\n        }\n    }\n\n\n    /**\n     * @notice Claim all rewards in treasury\n     * @dev Callable by admin\n     */\n    function claimTreasury() external nonReentrant onlyAdmin {\n        uint256 currentTreasuryAmount = treasuryAmount;\n        treasuryAmount = 0;\n        _safeTransfer(adminAddress, currentTreasuryAmount);\n\n        emit TreasuryClaim(currentTreasuryAmount);\n    }\n\n    /**\n     * @notice Set buffer and interval (in seconds)\n     * @dev Callable by admin\n     */\n    function setIntervalSeconds(uint32 _intervalSeconds) external onlyAdmin {\n        intervalSeconds = _intervalSeconds;\n\n        emit NewIntervalSeconds(_intervalSeconds);\n    }\n\n    /**\n     * @notice Set minBetAmount\n     * @dev Callable by admin\n     */\n    function setMinBetAmount(uint256 _minBetAmount) external onlyAdmin {\n        require(_minBetAmount != 0, \"Must be superior to 0\");\n        minBetAmount = _minBetAmount;\n\n        emit NewMinBetAmount(currentEpoch, minBetAmount);\n    }\n\n    /**\n     * @notice Set treasury fee\n     * @dev Callable by admin\n     */\n    function setTreasuryFee(uint256 _treasuryFee) external onlyAdmin {\n        require(_treasuryFee <= MAX_TREASURY_FEE, \"Treasury fee too high\");\n        treasuryFee = _treasuryFee;\n\n        emit NewTreasuryFee(currentEpoch, treasuryFee);\n    }\n\n    /**\n     * @notice It allows the owner to recover tokens sent to the contract by mistake\n     * @param _token: token address\n     * @param _amount: token amount\n     * @dev Callable by owner\n     */\n    function recoverToken(address _token, uint256 _amount) external onlyOwner {\n        IERC20(_token).safeTransfer(address(msg.sender), _amount);\n\n        emit TokenRecovery(_token, _amount);\n    }\n\n    /**\n     * @notice Set admin address\n     * @dev Callable by owner\n     */\n    function setAdmin(address _adminAddress) external onlyOwner {\n        require(_adminAddress != address(0), \"Cannot be zero address\");\n        adminAddress = _adminAddress;\n\n        emit NewAdminAddress(_adminAddress);\n    }\n\n    function getTimestamp() public view returns (uint256) \n    {\n        return block.timestamp;\n    }\n\n    function getCurrentRoundRemainingSeconds() public view returns (uint256) \n    {\n        return timestamps[currentEpoch].lockTimestamp - block.timestamp;\n    }\n    \n\n    /**\n     * @notice Returns round epochs and bet information for a user that has participated\n     * @param user: user address\n     * @param cursor: cursor\n     * @param size: size\n     */\n    function getUserRounds(\n        address user,\n        uint256 cursor,\n        uint256 size\n    )\n        external\n        view\n        returns (\n            uint256[] memory,\n            BetInfo[] memory,\n            uint256\n        )\n    {\n        uint256 length = size;\n\n        if (length > userRounds[user].length - cursor) {\n            length = userRounds[user].length - cursor;\n        }\n\n        uint256[] memory values = new uint256[](length);\n        BetInfo[] memory betInfo = new BetInfo[](length);\n\n        for (uint256 i = 0; i < length; i++) {\n            values[i] = userRounds[user][cursor + i];\n            betInfo[i] = ledger[values[i]][user];\n        }\n\n        return (values, betInfo, cursor + length);\n    }\n\n    /**\n     * @notice Returns round epochs length\n     * @param user: user address\n     */\n    function getUserRoundsLength(address user) external view returns (uint256) {\n        return userRounds[user].length;\n    }\n\n    /**\n     * @notice Get the claimable stats of specific epoch and user account\n     * @param epoch: epoch\n     * @param user: user address\n     */\n    function claimable(uint256 epoch, address user) public view returns (bool) {\n        BetInfo memory betInfo = ledger[epoch][user];\n        Round memory round = rounds[epoch];\n        if (round.lockPrice == round.closePrice) {\n            return false;\n        }\n        return\n            round.oracleCalled &&\n            betInfo.amount != 0 &&\n            !betInfo.claimed &&\n            ((round.closePrice > round.lockPrice && betInfo.position == Position.Bull) ||\n                (round.closePrice < round.lockPrice && betInfo.position == Position.Bear));\n    }\n\n    /**\n     * @notice Get the refundable stats of specific epoch and user account\n     * @param epoch: epoch\n     * @param user: user address\n     */\n    function refundable(uint256 epoch, address user) public view returns (bool) {\n        BetInfo memory betInfo = ledger[epoch][user];\n        Round memory round = rounds[epoch];\n        return\n            round.cancelled &&\n            !betInfo.claimed &&\n            block.timestamp > timestamps[epoch].closeTimestamp + intervalSeconds &&\n            betInfo.amount != 0;\n    }\n\n    /**\n     * @notice Calculate rewards for round\n     * @param epoch: epoch\n     */\n    function _calculateRewards(uint256 epoch) internal {\n        Round storage round = rounds[epoch];\n        if(!round.cancelled && rounds[epoch].rewardBaseCalAmount == 0 && rounds[epoch].rewardAmount == 0)\n        {\n            uint256 rewardBaseCalAmount;\n            uint256 treasuryAmt;\n            uint256 rewardAmount;\n            uint256 raffleAmount;\n\n            uint8 roundResultPosition = uint8(Position.Noresult);\n\n            // Bull wins\n            if (round.closePrice > round.lockPrice) {\n                rewardBaseCalAmount = round.bullAmount;\n                treasuryAmt = (round.totalAmount * treasuryFee) / 1000;\n                rewardAmount = round.totalAmount - treasuryAmt;\n                //decrease the reference system bonus we give to the users from the treasury amount\n                treasuryAmt = treasuryAmt - round.bullBonusAmount;\n                roundResultPosition = uint8(Position.Bull);\n            }\n            // Bear wins\n            else if (round.closePrice < round.lockPrice) {\n                rewardBaseCalAmount = round.bearAmount;\n                treasuryAmt = (round.totalAmount * treasuryFee) / 1000;\n                rewardAmount = round.totalAmount - treasuryAmt;\n                //decrease the reference system bonus we give to the users from the treasury amount\n                treasuryAmt = treasuryAmt - round.bearBonusAmount;\n                roundResultPosition = uint8(Position.Bear);\n            }\n            // Refund on same price\n            else {\n                rewardBaseCalAmount = 0;\n                rewardAmount = 0;\n                treasuryAmt = 0;\n                round.cancelled = true;\n            }\n            round.rewardBaseCalAmount = rewardBaseCalAmount;\n            round.rewardAmount = rewardAmount;\n\n\n            //send the raffle amount to the raffle contract and set it's round balance\n            raffleAmount = treasuryAmt * raffleRate / 100;\n            if(raffleAmount > 0){\n                raffle.addBalance{value:raffleAmount}();\n            }\n\n            // Add to treasury\n            treasuryAmount += treasuryAmt - raffleAmount;\n\n            emit RewardsCalculated(epoch, roundResultPosition, rewardBaseCalAmount, rewardAmount, treasuryAmt);\n        }\n    }\n\n    function _safeTransfer(address to, uint256 value) internal {\n        (bool success, ) = to.call{value: value}(\"\");\n        require(success, \"TransferHelper: TRANSFER_FAILED\");\n    }\n\n    /**\n     * @notice Determine if a round is valid for receiving bets\n     * Round must have started and locked\n     * Current timestamp must be within startTimestamp and closeTimestamp\n     */\n    function _bettable(uint256 epoch) internal view returns (bool) {\n        return\n            timestamps[epoch].startTimestamp != 0 &&\n            timestamps[epoch].lockTimestamp != 0 &&\n            block.timestamp > timestamps[epoch].startTimestamp &&\n            block.timestamp < timestamps[epoch].lockTimestamp;\n    }\n\n    /**\n     * @notice Returns true if `account` is a contract.\n     * @param account: account address\n     */\n    function _isContract(address account) internal view returns (bool) {\n        uint256 size;\n        assembly {\n            size := extcodesize(account)\n        }\n        return size > 0;\n    }\n}",
  "sourcePath": "/Users/cemadiloglu/Documents/blockchain/avax/HippoPrediction/contracts/HippoPrediction.sol",
  "compiler": {
    "name": "solc",
    "version": "0.8.0+commit.c7dfd78e.Emscripten.clang"
  },
  "schemaVersion": "3.4.2",
  "updatedAt": "2021-11-28T10:06:10.025Z",
  "networkType": "ethereum",
  "devdoc": {
    "kind": "dev",
    "methods": {},
    "version": 1
  },
  "userdoc": {
    "kind": "user",
    "methods": {},
    "version": 1
  }
}